:020000040000FA
:10000000700400206D020000710200007302000005
:100010007502000077020000790200000000000075
:100020000000000000000000000000007B02000053
:100030007D020000000000007F020000810A000035
:100040004D060000830200008302000095060000B8
:10005000830200008302000083020000830200008C
:10006000830200008302000083020000830200007C
:10007000830200008302000083020000830200006C
:10008000830200008302000083020000830200005C
:10009000830200008302000083020000830200004C
:1000A000830200008302000083020000830200003C
:1000B0008302000083020000710700008302000039
:1000C000830200008302000083020000830200001C
:1000D000830200008302000083020000830200000C
:1000E00083020000830200008302000083020000FC
:1000F00083020000830200008302000083020000EC
:1001000083020000830200008302000083020000DB
:1001100083020000830200008302000083020000CB
:1001200083020000830200008302000083020000BB
:1001300083020000830200008302000083020000AB
:1001400000000000000000000000000000000000AF
:10015000830200008302000083020000830200008B
:10016000000000000000000000000000000000008F
:10017000000000000000000000000000000000007F
:10018000000000000000000000000000000000006F
:10019000000000000000000000000000000000005F
:1001A000000000000000000000000000000000004F
:1001B000830200008302000083020000830200002B
:1001C000830200008302000083020000830200001B
:1001D000830200008302000083020000830200000B
:1001E00083020000830200008302000083020000FB
:1001F00083020000830200008302000083020000EB
:10020000830200008302000083020000000000005F
:1002100083020000830200008302000083020000CA
:1002200083020000830200008302000083020000BA
:1002300083020000830200008302000083020000AA
:10024000830200008302000083020000830200009A
:10025000830200008302000083020000830200008A
:1002600083020000830200008302000000F00AB84D
:10027000FEE7FEE7FEE7FEE7FEE7FEE7FEE7FEE756
:10028000FEE7FEE700F002F800F050F814A696E84A
:10029000000CB244B344DA4501D100F047F8BAE8A3
:1002A0000F000FA696E83000A5EB040504EB060747
:1002B000AAEB0704A7F101074FEA15154FEA34141A
:1002C000A4F10104AC4201D300F030F813F0010FA7
:1002D00018BFFB1A43F0010300F001F8DBE71847F1
:1002E0005C2A00007C2A0000103A24BF78C878C13C
:1002F000FAD8520724BF30C830C144BF04680C602C
:1003000070470000704700000023002400250026ED
:10031000103A28BF78C1FBD8520728BF30C148BF68
:100320000B6070471FB51FBD10B510BD00F029F858
:100330001146FFF7F7FF00F0F7FB00F047F803B4B2
:10034000FFF7F2FF03BC00F04FF8000072B67047F1
:1003500062B67047EFF3108072B6704780F3108872
:10036000704730BF704702480249014A024B70474C
:10037000700000207004002070000020704770475B
:100380007047754600F02CF8AE46050069465346A6
:1003900020F00700854618B020B5FFF7E4FFBDE860
:1003A00020404FF000064FF000074FF000084FF0DC
:1003B000000BAC46ACE8C009ACE8C009ACE8C00929
:1003C000ACE8C00921F007018D46704710B504461E
:1003D000AFF300802046BDE81040FFF7B0BF00003B
:1003E000004870470800002001491820ABBEFEE716
:1003F000260002007047000081B04EF20810C4F2DF
:100400000F00016841F0200101600168009145F290
:100410002052C4F2020244F24B31C4F64F41116043
:1004200045F22452C4F202021F21116045F2285203
:10043000C4F20202116821F01F01116045F22C5232
:10044000C4F2020211686FF31301116045F2004219
:10045000C4F20202116841F00E011160116821F02E
:100460001101116045F22042C4F20202116821F02C
:100470001F01116045F21052C4F20202116841F0EE
:100480001101116045F21C52C4F20202116841F0E0
:100490001F01116045F20442C4F20202116821F00A
:1004A0001101116045F20842C4F20202116821F004
:1004B0001101116045F20C42C4F20202116821F0F0
:1004C0001101116045F21C42C4F2020211211160B7
:1004D00045F21042C4F20202116841F011011160AC
:1004E000016841F0040101600068009046F200419B
:1004F000C4F20001086840F07000086046F2204134
:10050000C4F20001086820F07000086046F2105143
:10051000C4F20001086840F07000086046F21C5107
:10052000C4F20001086840F07000086046F2FC3137
:10053000C4F20001086820F070000860086840F00C
:10054000100008604EF21C41CEF20001086805223E
:1005500062F3575008604EF20011CEF200010868B5
:1005600040F08040086001B0704700004EF2081172
:10057000C4F20F01086840F002000860FFE74EF285
:100580000810C4F20F00006800F00200022801D039
:10059000FFE7F4E745F22851C4F20001086820F0B3
:1005A0003F00086045F22C51C4F20001086800F0D9
:1005B0007F40086045F20041C4F20001086840F045
:1005C0003F00086045F22041C4F20001086820F0B5
:1005D0003F00086045F21C51C4F20001086840F079
:1005E0003F00086045F20851C4F20001086840F07D
:1005F0003F00086040F26801C2F20001002008706C
:100600004EF21001CEF20001086820F001000860EF
:100610004EF62052CEF200021068202363F31F60D2
:100620001060086840F006000860704781B047F22B
:100630005800C0F202000090FFE7009820B1FFE7E9
:10064000009801380090F8E701B0704780B5FFF7D7
:10065000EDFF40F26900C2F20000007890B9FFE7B8
:1006600044F2FC30C4F2000000680006002805D403
:10067000FFE70621084600F079FA02E000F0F6F9FB
:10068000FFE7FFE744F21C41C4F20001802008604C
:1006900080BD000080B5FFF7C9FF40F26900C2F2DB
:1006A0000000007800285CD1FFE747F2FC30C4F27C
:1006B00000000068C00728B9FFE70021084600F0E5
:1006C00055FA4DE047F2FC30C4F2000000688007A4
:1006D000002805D4FFE70121084600F047FA3EE074
:1006E00047F2FC30C4F2000000684007002805D43F
:1006F000FFE70221084600F039FA2FE047F2FC300C
:10070000C4F2000000680007002805D4FFE70321B9
:10071000084600F02BFA20E047F2FC30C4F200005B
:1007200000684006002805D4FFE70421084600F0D1
:100730001DFA11E047F2FC30C4F200000068000628
:10074000002805D4FFE70521084600F00FFA02E073
:1007500000F08CF9FFE7FFE7FFE7FFE7FFE7FFE7C0
:10076000FFE747F21C41C4F20001CF20086080BDC2
:1007700080B5FFF75BFFFFF759FFFFF757FF45F223
:100780001440C4F202000068C006002825D5FFE727
:1007900045F21C41C4F202011020086040F26900D9
:1007A000C2F20000017881F0010101700078012897
:1007B00009D1FFE700F07AF940F26A01C2F20001C4
:1007C0000020087008E040F20001C2F200010120A0
:1007D000087000F04BF9FFE744E045F21440C4F222
:1007E00002000068C007E0B3FFE740F26900C2F210
:1007F0000000007898B9FFE740F26C01C2F20001F6
:100800000878013045F25652C5F25552A0FB02322B
:1008100002EB4202801A087000F048F91AE040F238
:100820006900C2F200000078012812D1FFE700F051
:100830003DF940F26B01C2F200010120087040F264
:100840006A01C2F200010878013000F0030008706C
:10085000FFE7FFE745F21C41C4F2020101200860F6
:10086000FFE7FFE780BD000081B04EF20810C4F240
:100870000F00016841F008010160016841F00101C9
:1008800001600068009047F22051C4F2000144F278
:100890004B30C4F64F40086047F22451C4F20001C7
:1008A000FF20086047F22851C4F20001086820F0D8
:1008B000CF00086047F22C51C4F2000108684FF6DF
:1008C000FF729043086047F20041C4F200010868DB
:1008D00020F0CF00086047F22041C4F20001086810
:1008E00020F0CF00086047F21051C4F20001086800
:1008F00040F0CF00086047F21C51C4F200010868C4
:1009000040F0CF00086044F22851C4F200010868AA
:1009100020F08000086044F22C51C4F20001086805
:1009200020F07040086044F20041C4F20001086801
:1009300020F08000086044F22041C4F20001086801
:1009400020F08000086044F21051C4F200010868F1
:1009500040F08000086044F21C51C4F200010868B5
:1009600040F08000086047F20441C4F200010868CA
:1009700020F0CF00086047F20841C4F20001086887
:1009800040F0CF00086047F20C41C4F20001086853
:1009900020F0CF00086047F21C41C4F20001CF20D4
:1009A000086047F21041C4F20001086840F0CF002F
:1009B000086044F20441C4F20001086820F080009D
:1009C000086044F20841C4F20001086840F0800069
:1009D000086044F20C41C4F20001086820F0800075
:1009E000086044F21C41C4F200018020086044F217
:1009F0001041C4F20001086840F0800008604EF227
:100A00000041CEF2000108680E2262F30710086070
:100A100008680A2262F31F7008604EF20011CEF2DD
:100A20000001086840F001000860086840F0080014
:100A3000086001B07047000081B000900098013854
:100A40004EF21401CEF2000108604EF21801CEF20F
:100A50000001002008604EF21001CEF2000108688B
:100A600040F00100086001B0704700004EF2100134
:100A7000CEF20001086820F0010008607047000015
:100A800040F26800C2F200000178013101F03F013C
:100A90000170017840F6A840C0F20000405C45F2C9
:100AA000FC01C4F2000108607047000081B046F20A
:100AB000FC31C4F20001086820F07000086040F2C8
:100AC0006C00C2F2000000780146009140B1FFE7DF
:100AD000009801280DD0FFE70098022812D01AE0F4
:100AE00046F2FC31C4F20001086840F010000860D2
:100AF00012E046F2FC31C4F20001086840F0200028
:100B0000086009E046F2FC31C4F20001086840F0D8
:100B10004000086000E0FFE701B0704740F2690064
:100B2000C2F200000078704780B582B000200190CA
:100B3000FFF70CFCFFF71AFDFFF75EFCFFF794FED2
:100B4000FFF706FCFFE7FFF7E9FF0146009120B140
:100B5000FFE70098012803D005E0FFF702FC03E05F
:100B600000F02CF800E0FFE7EDE7000080B582B070
:100B70008DF807008DF8061040F26900C2F20000FF
:100B80000078C0B9FFE740F26C00C2F200000078C4
:100B9000C0EBC0008DF805009DF805009DF806101B
:100BA000014442F6C840C0F2000050F8210080091C
:100BB000FFF742FFFFE702B080BD000080B584B0C0
:100BC0000020039040F26A00C2F200000078C0EBFF
:100BD000002140F6E840C0F2000000EBC1000290A6
:100BE000FFE70298039900EBC10001790020009013
:100BF00059B1FFE740F26900C2F200000078013805
:100C0000B0FA80F040090090FFE70098C007002884
:100C100048D0FFE70298039950F83100FF2803D12C
:100C2000FFE7FFF723FF15E00298039950F8310022
:100C300040F26C01C2F200010978C1EBC10101442C
:100C400042F6C840C0F2000050F821008009FFF7CA
:100C5000F3FEFFE700200190FFE701980299039A55
:100C600001EBC2010979884207D2FFE7FFF7DEFCFA
:100C7000FFE7019801300190EFE7FFF7F7FE0398D7
:100C80000130039040F26B00C2F2000000780128AE
:100C900007D1FFE740F26B01C2F2000100200870AB
:100CA00000E09EE704B080BD202326292C2F31349C
:100CB00036383A3B3D3E3E3F3F3F3E3E3D3B3A3875
:100CC0003634312F2C292623201D1A1714110F0C0E
:100CD0000A080605030202010101020203050608D3
:100CE0000A0C0F1114171A1D020000000400000066
:100CF00001000000040000000000000004000000EB
:100D000001000000040000000200000004000000D8
:100D100002000000040000000200000008000000C3
:100D200001000000040000000100000004000000B9
:100D300001000000080000000200000004000000A4
:100D4000040000000400000004000000080000008F
:100D50000200000004000000010000000400000088
:100D6000000000000400000001000000040000007A
:100D70000200000004000000020000000400000067
:100D80000200000008000000010000000400000054
:100D90000100000004000000020000000400000048
:100DA0000100000004000000000000000800000036
:100DB000FF00000000000000000000000000000034
:100DC0000000000000000000000000000000000023
:100DD0000000000000000000000000000000000013
:100DE0000000000000000000000000000000000003
:100DF00000000000000000000000000000000000F3
:1014E00004000000020000000400000002000000F0
:1014F00005000000040000000400000004000000DB
:1015000007000000040000000600000004000000C6
:10151000FF000000040000000400000002000000C2
:1015200004000000020000000500000004000000AC
:101530000400000004000000080000000400000097
:101540000700000004000000FF000000040000008D
:10155000040000000200000004000000020000007F
:101560000B0000000400000009000000040000005F
:101570000700000004000000060000000400000056
:101580000500000008000000FF000000040000004B
:101590000A000000020000000A0000000200000033
:1015A0000900000004000000070000000400000023
:1015B0000800000004000000070000000800000010
:1015C000FF0000000000000000000000000000001C
:1015D000000000000000000000000000000000000B
:1015E00000000000000000000000000000000000FB
:1015F00000000000000000000000000000000000EB
:1016000000000000000000000000000000000000DA
:101CD0000000000000000000000000000400000000
:101CE00000000000040000000400000004000000E8
:101CF00004000000040000000500000004000000D3
:101D000005000000040000000400000008000000BE
:101D100003000000040000000300000004000000B5
:101D200002000000040000000200000004000000A7
:101D30000100000004000000010000000400000099
:101D40000000000008000000040000000400000083
:101D50000400000004000000030000000400000074
:101D60000300000004000000020000000400000066
:101D70000200000004000000010000000800000054
:101D80000400000004000000040000000400000043
:101D90000300000004000000030000000400000035
:101DA0000200000004000000020000000400000027
:101DB0000100000008000000000000000400000016
:101DC0000000000004000000040000000400000007
:101DD00004000000040000000500000004000000F2
:101DE00005000000040000000400000008000000DE
:101DF00003000000040000000300000004000000D5
:101E000002000000040000000200000004000000C6
:101E100001000000040000000100000004000000B8
:101E20000000000008000000FF00000000000000AB
:101E300000000000000000000000000000000000A2
:101E40000000000000000000000000000000000092
:101E50000000000000000000000000000000000082
:101E60000000000000000000000000000000000072
:1024E00004000000080000000100000004000000DB
:1024F00002000000040000000200000008000000CC
:1025000001000000080000000600000004000000B8
:1025100006000000040000000500000004000000A8
:102520000500000004000000040000000800000096
:10253000FF00000004000000040000000400000090
:102540000400000004000000040000000800000077
:102550000100000004000000020000000400000070
:102560000200000008000000010000000800000058
:102570000600000004000000060000000400000047
:102580000500000004000000050000000400000039
:102590000400000008000000FF0000000000000030
:1025A000000000000000000000000000000000002B
:1025B000000000000000000000000000000000001B
:1025C000000000000000000000000000000000000B
:1025D00000000000000000000000000000000000FB
:102CC00000000000000000008CEE000096D4000020
:102CD00064BD000016B30000709F00000C8E000061
:102CE000847E0000727700006A6A0000CE5E0000F9
:102CF0007C590000B84F000006470000463F000026
:102D0000BA3B000034350000662F0000BE2C0000E6
:102D1000DC27000082230000A41F0000DC1D00004F
:102D2000DC1D00009A1A0000B41700005E160000B7
:102D3000EE130000C2110000D20F00005C2D000055
:102D40000000002004000000E8020000602D0000E8
:102D500008000020680400000803000001000000D3
:040000050000026D88
:00000001FF
